:0400000058EFFFF0C6
:020000040001F9
:10FE9400828482941200829482841200086E08C0C4
:10FEA400C9FF00D09EA6FED79E96120000EE01F078
:10FEB400070EEE6AE806FDE10001C0EFFFF0550E03
:10FEC400C96E00D09EA6FED7C9CF08F09E960850F2
:10FED400120012000A6E4AECFFF0120E50ECFFF012
:10FEE4000A5050ECFFF0095050ECFFF04DECFFF0DD
:10FEF4001200040E8BECFFF00B6E0B500809096E18
:10FF0400040E6CECFFF0400E096E080E6CECFFF072
:10FF14001200096E4AECFFF0130E50ECFFF009508A
:10FF240050ECFFF061ECFFF0056E4DECFFF0055076
:10FF3400120012000BBA120001D01200170E096E43
:10FF4400070E6CECFFF0020E096E060E6CECFFF06F
:10FF5400010E096E050E6CECFFF0050E096E030E22
:10FF64006CECFFF0000E096E020E6CECFFF0800EDC
:10FF7400096E010E6CECFFF0120012007BECFFF036
:10FF84009CECFFF0070E8BECFFF0076E060E8BEC7B
:10FF9400FFF0046E050E8BECFFF0016E030E8BEC8C
:10FFA400FFF0026E020E8BECFFF0036E010E8BEC81
:10FFB400FFF0066E07C009F0070E6CECFFF004C0FA
:10FFC40009F0060E6CECFFF001C009F0050E6CECB4
:10FFD400FFF002C009F0030E6CECFFF003C009F05F
:10FFE400020E6CECFFF006C009F0010E6CECFFF0A1
:04FFF40000EF00F02A
:06FFF800E1F4C7FFF8FF71
:00000001FF
